:100000000C948B000C94AA000C94AA000C94AA00E7
:100010000C94AA000C94AA000C94AA000C94AA00B8
:100020000C94AA000C94AA000C94AA000C94AA00A8
:100030000C94AA000C945E030C94AA000C94AA00E1
:100040000C94AA000C94AA000C94AA000C94AA0088
:100050000C94AA000C94AA000C94AA000C94AA0078
:100060000C94AA000C94AA000C94AA000C94AA0068
:100070000C94AA000C94AA000C94AA000C94AA0058
:100080000C94AA000C94AA000C94AA007404B7045F
:10009000B704B704B704B704B704B704B704B70488
:1000A000B704B704B704B704B704B704B704B70478
:1000B000B704B704B704B704B704B704B704B70468
:1000C000B704B704B704B704B704B704B704B70458
:1000D000B704B304B704B704B704B704B704B7044C
:1000E000AC04B704B704B704B704B704B004780489
:1000F0007C048004840488048C0490049404980490
:10010000B704B704B704B704B704B704B7049C0432
:10011000A004A404A80411241FBECFEFD0E4DEBFC6
:10012000CDBF11E0A0E0B1E0E6EFFCE000E00BBFE6
:1001300002C007900D92A231B107D9F721E0A2E1E8
:10014000B1E001C01D92AF32B207E1F70E940D0588
:100150000C9479060C940000CF93DF93CDB7DEB7F3
:1001600081E00E94D3000000DF91CF910895CF93EA
:10017000DF93CDB7DEB784E690E00E94770188E395
:100180000E94D30086E00E94D3008FE00E94D3003B
:1001900081E00E94D3008AE090E00E947701000095
:1001A000DF91CF910895CF93DF931F92CDB7DEB744
:1001B00089838BE290E02BE230E0F90120812F7BF4
:1001C000FC01208385E290E02981FC0120838BE201
:1001D00090E02BE230E0F90120812068FC012083CF
:1001E00000008BE290E02BE230E0F90120812F77D4
:1001F000FC01208382E090E00E94770100000F90D4
:10020000DF91CF910895CF93DF931F92CDB7DEB7E3
:1002100089838BE290E02BE230E0F90120812064B9
:10022000FC01208385E290E02981FC0120838BE2A0
:1002300090E02BE230E0F90120812068FC0120836E
:1002400000008BE290E02BE230E0F90120812F7773
:10025000FC01208381E090E00E94770100000F9074
:10026000DF91CF910895CF93DF9300D000D0CDB729
:10027000DEB78A837C836B830E94AC008A8189838A
:1002800011C0898191E0980F99830E9460018B8150
:100290009C819C012F5F3F4F3C832B83FC0180811D
:1002A0000E9403018B819C81FC018081882349F796
:1002B00000000F900F900F900F90DF91CF91089555
:1002C000CF93DF931F92CDB7DEB7898389818131C8
:1002D00028F4898181580E94D30004C08981815506
:1002E0000E94D30000000F90DF91CF910895CF932B
:1002F000DF9300D000D000D0CDB7DEB79E838D83D2
:100300001A82198213C01C821B8206C000008B81D6
:100310009C8101969C838B838B819C818730934049
:10032000ACF389819A8101969A83898329813A81E4
:100330008D819E812817390734F3000026960FB669
:10034000F894DEBF0FBECDBFDF91CF910895CF935C
:10035000DF9300D01F92CDB7DEB789836A834B83CA
:100360008B81882371F08A81282F30E081E090E032
:1003700002C0880F991F2A95E2F7982F8981892B4F
:100380000EC08A81282F30E081E090E002C0880F03
:10039000991F2A95E2F7982F9095898189230F90CC
:1003A0000F900F90DF91CF910895CF93DF9300D0FE
:1003B000CDB7DEB789836A838A81282F30E081E058
:1003C00090E002C0880F991F2A95E2F7982F898143
:1003D00089230F900F90DF91CF9108950F931F9372
:1003E000CF93DF93CDB7DEB708E210E040E064E0E2
:1003F0008FEF0E94A701F8018083000086E290E061
:10040000FC018081809560E00E94D501882311F075
:1004100081E3D3C086E290E0FC018081809561E0B9
:100420000E94D501882311F084E3C7C086E290E0E2
:10043000FC018081809562E00E94D501882311F043
:1004400087E3BBC086E290E0FC018081809563E099
:100450000E94D501882311F08AE2AFC008E210E0C3
:1004600040E065E08FEF0E94A701F8018083000063
:1004700086E290E0FC018081809560E00E94D501D9
:10048000882311F082E399C086E290E0FC0180812C
:10049000809561E00E94D501882311F085E38DC02D
:1004A00086E290E0FC018081809562E00E94D501A7
:1004B000882311F088E381C086E290E0FC0180810E
:1004C000809563E00E94D501882311F080E375C018
:1004D00008E210E040E066E08FEF0E94A701F8011B
:1004E0008083000086E290E0FC018081809560E0DE
:1004F0000E94D501882311F083E35FC086E290E07B
:10050000FC018081809561E00E94D501882311F073
:1005100086E353C086E290E0FC018081809562E032
:100520000E94D501882311F089E347C086E290E05C
:10053000FC018081809563E00E94D501882311F041
:1005400083E23BC008E210E040E067E08FEF0E94EA
:10055000A701F8018083000086E290E0FC01808121
:10056000809560E00E94D501882311F081E425C0C8
:1005700086E290E0FC018081809561E00E94D501D7
:10058000882311F082E419C086E290E0FC018081AA
:10059000809562E00E94D501882311F083E40DC0AC
:1005A00086E290E0FC018081809563E00E94D501A5
:1005B000882311F084E401C080E0DF91CF911F9186
:1005C0000F910895CF93DF9300D000D0CDB7DEB761
:1005D00069837A838B839C8389819A81AB81BC8177
:1005E0008093000190930101A0930201B093030155
:1005F0008091000190910101A0910201B09103014D
:100600008093130190931401A0931501B0931601E8
:1006100000000F900F900F900F90DF91CF910895F1
:10062000CF93DF93CDB7DEB781E890E02BE0FC01FC
:10063000208388E890E02DE730E0FC0131832083BF
:100640008FE690E022E0FC01208384E890E0FC014A
:10065000118210828091000190910101A09102010C
:10066000B09103018093130190931401A09315019D
:10067000B09316018FE590E02FE530E0F90120817D
:100680002068FC0120830000DF91CF910895CF9373
:10069000DF93CDB7DEB781E890E0FC011082000067
:1006A000DF91CF910895CF93DF93CDB7DEB781E08F
:1006B000809312010000DF91CF9108951F920F9255
:1006C00000905F000F92112400905B000F922F9317
:1006D0003F934F935F936F937F938F939F93AF93CA
:1006E000BF93EF93FF93CF93DF93CDB7DEB78091A6
:1006F000130190911401A0911501B0911601019779
:10070000A109B1098093130190931401A0931501DD
:10071000B09316018091130190911401A0911501DD
:10072000B0911601892B8A2B8B2B91F40E945303D5
:100730008091000190910101A0910201B09103010B
:100740008093130190931401A0931501B0931601A7
:100750000000DF91CF91FF91EF91BF91AF919F91F9
:100760008F917F916F915F914F913F912F910F905A
:1007700000925B000F9000925F000F901F90189501
:10078000CF93DF93CDB7DEB72C970FB6F894DEBFCB
:100790000FBECDBF6D837E838F83988729873A876D
:1007A0004B875C878D819E81AF81B88529853A858D
:1007B0004B855C85BC01CD010E944E06DC01CB015E
:1007C00089839A83AB83BC8389819A81AB81BC8105
:1007D000892B8A2B8B2B29F489859A85AB85BC853F
:1007E00011C089859A85AB85BC858D839E83AF8337
:1007F000B88789819A81AB81BC8189879A87AB87C9
:10080000BC87D0CFBC01CD012C960FB6F894DEBFCB
:100810000FBECDBFDF91CF910895CF93DF9300D06E
:100820001F92CDB7DEB789837B836A8389818A3043
:1008300031F48A819B81BC018DE00E940D0480EC23
:1008400090E0FC018081882F90E080729927892BAD
:10085000B1F386EC90E02981FC01208380E090E0F8
:100860000F900F900F90DF91CF910895CF93DF936A
:1008700000D0CDB7DEB79A8389830E94EE018093C2
:10088000180189819A81009719F0019731F00AC007
:1008900081E090E09A83898308C081E090E09A83A8
:1008A000898303C01A821982000089819A81009786
:1008B00009F468C0019709F066C080911801882F7B
:1008C00090E0092E000CAA0BBB0B40E050E024E4A2
:1008D00030E0841B950B2817390708F448C08A5B61
:1008E0009F4FFC010C9470068FE18093170143C069
:1008F0008DE0809317013FC082E0809317013BC0D9
:1009000083E08093170137C084E08093170133C0E0
:1009100085E0809317012FC086E0809317012BC0DC
:1009200087E08093170127C088E08093170123C0D8
:1009300089E0809317011FC08AE0809317011BC0D4
:100940008BE08093170117C08CE08093170113C0D0
:1009500081E0809317010FC08EE0809317010BC0D8
:100960001092170108C08FE08093170104C08BE13B
:1009700080931701000085E290E020911701FC01AF
:10098000208301C0000089819A810F900F90DF9130
:10099000CF910895CF93DF9300D0CDB7DEB79A8380
:1009A000898389819A81009719F0019731F013C0EA
:1009B00081E090E09A83898311C0809117018F3183
:1009C00029F481E090E09A83898308C082E090E076
:1009D0009A83898303C01A821982000089819A81CF
:1009E0008130910581F08230910519F0892B69F0F1
:1009F0000DC081E00E94600180911801882F90E075
:100A00000E94030103C0000001C0000089819A8197
:100A10000F900F90DF91CF9108950F931F93CF9375
:100A2000DF93CDB7DEB729970FB6F894DEBF0FBEC0
:100A3000CDBF81E290E02FEFFC01208382E290E0C5
:100A4000FC01108284E290E02FEFFC01208385E21C
:100A500090E0FC01108287E290E020EFFC0120830F
:100A600088E290E02FE0FC0120838AE290E02FEF03
:100A7000FC0120838BE290E0FC01108289E191E08F
:100A80009F838E8384E291E09987888782E090E05B
:100A90009C838B838FEF8D838D81809319018AE0F6
:100AA00090E0A0E0B0E080931A0190931B01A09326
:100AB0001C01B0931D0180911A0190911B01A0911E
:100AC0001C01B0911D0180931E0190931F01A09302
:100AD0002001B093210186E394E090932301809359
:100AE00022018D818093240184E190E0A0E0B0E0B8
:100AF0008093250190932601A0932701B0932801AC
:100B00008091250190912601A0912701B0912801A3
:100B10008093290190932A01A0932B01B0932C017B
:100B20008AEC94E090932E0180932D016AE070E0AE
:100B300080E090E00E94E2020E9410030E94B70051
:100B40001A8219829BC089819A81880F991F9E0100
:100B50002F5F3F4F820F931F0596FC01808191818B
:100B6000FC01258136814781508589819A81880FD2
:100B7000991FBE016F5F7F4F860F971F0596FC017F
:100B800080819181FC0181819281A381B4812817A8
:100B900039074A075B0709F045C089819A81880FA8
:100BA000991F9E012F5F3F4F820F931F0596FC01F7
:100BB0000081118189819A81880F991F9E012F5F81
:100BC0003F4F820F931F0596FC0180819181FC01AC
:100BD0002185328589819A81880F991FAE014F5FE7
:100BE0005F4F840F951F0596FC0180819181FC0168
:100BF0008081082E000C990BF9010995F80180837A
:100C000089819A81880F991F9E012F5F3F4F820F24
:100C1000931F0596FC0180819181FC01158216824B
:100C20001782108689819A81880F991F9E012F5FF4
:100C30003F4F820F931F0596FC01208131818981EE
:100C40009A81880F991FAE014F5F5F4F840F951FE8
:100C50000596FC0180819181FC0185819681A781A7
:100C6000B0850A96A11DB11DF90185839683A783DE
:100C7000B08789819A8101969A83898329813A81F3
:100C80008B819C812817390708F45DCF0000809183
:100C900012018823E1F31092120152CFA1E21A2E21
:100CA000AA1BBB1BFD010DC0AA1FBB1FEE1FFF1F10
:100CB000A217B307E407F50720F0A21BB30BE40B60
:100CC000F50B661F771F881F991F1A9469F76095A7
:100CD0007095809590959B01AC01BD01CF01089561
:100CE000EE0FFF1F0024001C0BBE0790F691E02DB5
:060CF0000994F894FFCF07
:100CF6000100000000000002000000000D040000DA
:020D06000000EB
:00000001FF
